{
  "_format": "hh-sol-artifact-1",
  "contractName": "SafePaySplitter",
  "sourceName": "contracts/SafePaySplitter.sol",
  "abi": [
    {
      "inputs": [
        {
          "internalType": "address",
          "name": "_feeWallet",
          "type": "address"
        },
        {
          "internalType": "uint256",
          "name": "_feeBasisPoints",
          "type": "uint256"
        }
      ],
      "stateMutability": "nonpayable",
      "type": "constructor"
    },
    {
      "inputs": [
        {
          "internalType": "address",
          "name": "owner",
          "type": "address"
        }
      ],
      "name": "OwnableInvalidOwner",
      "type": "error"
    },
    {
      "inputs": [
        {
          "internalType": "address",
          "name": "account",
          "type": "address"
        }
      ],
      "name": "OwnableUnauthorizedAccount",
      "type": "error"
    },
    {
      "inputs": [],
      "name": "ReentrancyGuardReentrantCall",
      "type": "error"
    },
    {
      "inputs": [
        {
          "internalType": "address",
          "name": "token",
          "type": "address"
        }
      ],
      "name": "SafeERC20FailedOperation",
      "type": "error"
    },
    {
      "anonymous": false,
      "inputs": [
        {
          "indexed": false,
          "internalType": "uint256",
          "name": "oldFee",
          "type": "uint256"
        },
        {
          "indexed": false,
          "internalType": "uint256",
          "name": "newFee",
          "type": "uint256"
        }
      ],
      "name": "FeeBasisPointsUpdated",
      "type": "event"
    },
    {
      "anonymous": false,
      "inputs": [
        {
          "indexed": true,
          "internalType": "address",
          "name": "oldWallet",
          "type": "address"
        },
        {
          "indexed": true,
          "internalType": "address",
          "name": "newWallet",
          "type": "address"
        }
      ],
      "name": "FeeWalletUpdated",
      "type": "event"
    },
    {
      "anonymous": false,
      "inputs": [
        {
          "indexed": true,
          "internalType": "address",
          "name": "previousOwner",
          "type": "address"
        },
        {
          "indexed": true,
          "internalType": "address",
          "name": "newOwner",
          "type": "address"
        }
      ],
      "name": "OwnershipTransferred",
      "type": "event"
    },
    {
      "anonymous": false,
      "inputs": [
        {
          "indexed": true,
          "internalType": "address",
          "name": "merchant",
          "type": "address"
        },
        {
          "indexed": true,
          "internalType": "address",
          "name": "token",
          "type": "address"
        },
        {
          "indexed": true,
          "internalType": "bytes32",
          "name": "orderId",
          "type": "bytes32"
        },
        {
          "indexed": false,
          "internalType": "uint256",
          "name": "grossAmount",
          "type": "uint256"
        },
        {
          "indexed": false,
          "internalType": "uint256",
          "name": "merchantAmount",
          "type": "uint256"
        },
        {
          "indexed": false,
          "internalType": "uint256",
          "name": "feeAmount",
          "type": "uint256"
        }
      ],
      "name": "PaymentProcessed",
      "type": "event"
    },
    {
      "anonymous": false,
      "inputs": [
        {
          "indexed": true,
          "internalType": "address",
          "name": "token",
          "type": "address"
        },
        {
          "indexed": false,
          "internalType": "bool",
          "name": "supported",
          "type": "bool"
        }
      ],
      "name": "TokenSupportUpdated",
      "type": "event"
    },
    {
      "inputs": [
        {
          "internalType": "address",
          "name": "token",
          "type": "address"
        },
        {
          "internalType": "address",
          "name": "to",
          "type": "address"
        },
        {
          "internalType": "uint256",
          "name": "amount",
          "type": "uint256"
        }
      ],
      "name": "emergencyWithdraw",
      "outputs": [],
      "stateMutability": "nonpayable",
      "type": "function"
    },
    {
      "inputs": [],
      "name": "feeBasisPoints",
      "outputs": [
        {
          "internalType": "uint256",
          "name": "",
          "type": "uint256"
        }
      ],
      "stateMutability": "view",
      "type": "function"
    },
    {
      "inputs": [],
      "name": "feeWallet",
      "outputs": [
        {
          "internalType": "address",
          "name": "",
          "type": "address"
        }
      ],
      "stateMutability": "view",
      "type": "function"
    },
    {
      "inputs": [],
      "name": "getStats",
      "outputs": [
        {
          "internalType": "uint256",
          "name": "_totalProcessed",
          "type": "uint256"
        },
        {
          "internalType": "uint256",
          "name": "_totalFeeCollected",
          "type": "uint256"
        },
        {
          "internalType": "address",
          "name": "_feeWallet",
          "type": "address"
        },
        {
          "internalType": "uint256",
          "name": "_feeBasisPoints",
          "type": "uint256"
        }
      ],
      "stateMutability": "view",
      "type": "function"
    },
    {
      "inputs": [
        {
          "internalType": "bytes32",
          "name": "orderId",
          "type": "bytes32"
        }
      ],
      "name": "isOrderProcessed",
      "outputs": [
        {
          "internalType": "bool",
          "name": "",
          "type": "bool"
        }
      ],
      "stateMutability": "view",
      "type": "function"
    },
    {
      "inputs": [],
      "name": "owner",
      "outputs": [
        {
          "internalType": "address",
          "name": "",
          "type": "address"
        }
      ],
      "stateMutability": "view",
      "type": "function"
    },
    {
      "inputs": [
        {
          "internalType": "address",
          "name": "merchant",
          "type": "address"
        },
        {
          "internalType": "address",
          "name": "token",
          "type": "address"
        },
        {
          "internalType": "bytes32",
          "name": "orderId",
          "type": "bytes32"
        }
      ],
      "name": "processPayment",
      "outputs": [],
      "stateMutability": "nonpayable",
      "type": "function"
    },
    {
      "inputs": [
        {
          "internalType": "bytes32",
          "name": "",
          "type": "bytes32"
        }
      ],
      "name": "processedOrders",
      "outputs": [
        {
          "internalType": "bool",
          "name": "",
          "type": "bool"
        }
      ],
      "stateMutability": "view",
      "type": "function"
    },
    {
      "inputs": [],
      "name": "renounceOwnership",
      "outputs": [],
      "stateMutability": "nonpayable",
      "type": "function"
    },
    {
      "inputs": [
        {
          "internalType": "uint256",
          "name": "_feeBasisPoints",
          "type": "uint256"
        }
      ],
      "name": "setFeeBasisPoints",
      "outputs": [],
      "stateMutability": "nonpayable",
      "type": "function"
    },
    {
      "inputs": [
        {
          "internalType": "address",
          "name": "_feeWallet",
          "type": "address"
        }
      ],
      "name": "setFeeWallet",
      "outputs": [],
      "stateMutability": "nonpayable",
      "type": "function"
    },
    {
      "inputs": [
        {
          "internalType": "address",
          "name": "token",
          "type": "address"
        },
        {
          "internalType": "bool",
          "name": "supported",
          "type": "bool"
        }
      ],
      "name": "setSupportedToken",
      "outputs": [],
      "stateMutability": "nonpayable",
      "type": "function"
    },
    {
      "inputs": [
        {
          "internalType": "address",
          "name": "",
          "type": "address"
        }
      ],
      "name": "supportedTokens",
      "outputs": [
        {
          "internalType": "bool",
          "name": "",
          "type": "bool"
        }
      ],
      "stateMutability": "view",
      "type": "function"
    },
    {
      "inputs": [],
      "name": "totalFeeCollected",
      "outputs": [
        {
          "internalType": "uint256",
          "name": "",
          "type": "uint256"
        }
      ],
      "stateMutability": "view",
      "type": "function"
    },
    {
      "inputs": [],
      "name": "totalProcessed",
      "outputs": [
        {
          "internalType": "uint256",
          "name": "",
          "type": "uint256"
        }
      ],
      "stateMutability": "view",
      "type": "function"
    },
    {
      "inputs": [
        {
          "internalType": "address",
          "name": "newOwner",
          "type": "address"
        }
      ],
      "name": "transferOwnership",
      "outputs": [],
      "stateMutability": "nonpayable",
      "type": "function"
    }
  ],
  "bytecode": "0x608060405234801561001057600080fd5b50604051610cc1380380610cc183398101604081905261002f9161016c565b6001600055338061005b57604051631e4fbdf760e01b8152600060048201526024015b60405180910390fd5b6100648161011a565b506001600160a01b0382166100b05760405162461bcd60e51b8152602060048201526012602482015271125b9d985b1a5908199959481dd85b1b195d60721b6044820152606401610052565b6103e88111156100f15760405162461bcd60e51b815260206004820152600c60248201526b08ccaca40e8dede40d0d2ced60a31b6044820152606401610052565b600280546001600160a01b0319166001600160a01b0393909316929092179091556003556101a6565b600180546001600160a01b038381166001600160a01b0319831681179093556040519116919082907f8be0079c531659141344cd1fd0a4f28419497f9722a3daafe3b4186f6b6457e090600090a35050565b6000806040838503121561017f57600080fd5b82516001600160a01b038116811461019657600080fd5b6020939093015192949293505050565b610b0c806101b56000396000f3fe608060405234801561001057600080fd5b50600436106100ff5760003560e01c8063a5cfbb3111610097578063e63ea40811610066578063e63ea4081461024d578063e798646614610260578063f25f4b5614610273578063f2fde38b1461028657600080fd5b8063a5cfbb31146101ee578063b8606eef14610201578063b9b2b5cd1461020a578063c59d48471461021357600080fd5b8063715018a6116100d3578063715018a61461019757806384411d651461019f5780638da5cb5b146101b657806390d49b9d146101db57600080fd5b8062b727da146101045780630165dd271461013c5780634b5b4b391461015157806368c4ac2614610174575b600080fd5b610127610112366004610973565b60009081526005602052604090205460ff1690565b60405190151581526020015b60405180910390f35b61014f61014a366004610973565b610299565b005b61012761015f366004610973565b60056020526000908152604090205460ff1681565b6101276101823660046109a8565b60046020526000908152604090205460ff1681565b61014f61032c565b6101a860065481565b604051908152602001610133565b6001546001600160a01b03165b6040516001600160a01b039091168152602001610133565b61014f6101e93660046109a8565b610340565b61014f6101fc3660046109ca565b6103e5565b6101a860035481565b6101a860075481565b6006546007546002546003546040805194855260208501939093526001600160a01b03909116918301919091526060820152608001610133565b61014f61025b3660046109ca565b6106b5565b61014f61026e366004610a06565b61071b565b6002546101c3906001600160a01b031681565b61014f6102943660046109a8565b6107c8565b6102a1610806565b6103e88111156102e75760405162461bcd60e51b815260206004820152600c60248201526b08ccaca40e8dede40d0d2ced60a31b60448201526064015b60405180910390fd5b600380549082905560408051828152602081018490527fa000bd133a155b02a7bc4f0592fdaf6cfb67ae19c4176c6cbc7bdafda544817d910160405180910390a15050565b610334610806565b61033e6000610833565b565b610348610806565b6001600160a01b0381166103935760405162461bcd60e51b8152602060048201526012602482015271125b9d985b1a5908199959481dd85b1b195d60721b60448201526064016102de565b600280546001600160a01b038381166001600160a01b0319831681179093556040519116919082907f362a006325d32978b283e449d254cfcf93e2cccc321603ead9a74238d8dbf36e90600090a35050565b6103ed610885565b6001600160a01b0383166104365760405162461bcd60e51b815260206004820152601060248201526f125b9d985b1a59081b595c98da185b9d60821b60448201526064016102de565b6001600160a01b03821660009081526004602052604090205460ff166104945760405162461bcd60e51b8152602060048201526013602482015272151bdad95b881b9bdd081cdd5c1c1bdc9d1959606a1b60448201526064016102de565b60008181526005602052604090205460ff16156104f35760405162461bcd60e51b815260206004820152601760248201527f4f7264657220616c72656164792070726f63657373656400000000000000000060448201526064016102de565b6040516370a0823160e01b81523060048201526000906001600160a01b038416906370a0823190602401602060405180830381865afa15801561053a573d6000803e3d6000fd5b505050506040513d601f19601f8201168201806040525081019061055e9190610a42565b9050600081116105a75760405162461bcd60e51b81526020600482015260146024820152734e6f20746f6b656e7320746f2070726f6365737360601b60448201526064016102de565b6000828152600560205260408120805460ff19166001179055600354612710906105d19084610a71565b6105db9190610a8e565b905060006105e98284610ab0565b905082600660008282546105fd9190610ac3565b9250508190555081600760008282546106169190610ac3565b9091555061063090506001600160a01b03861687836108af565b811561065057600254610650906001600160a01b038781169116846108af565b604080518481526020810183905290810183905284906001600160a01b0380881691908916907f78b102636bc2c07881bcd63ed0f2875216aa976126b3c4c9b8b6827becc5e7de9060600160405180910390a45050506106b06001600055565b505050565b6106bd610806565b6001600160a01b0382166107075760405162461bcd60e51b8152602060048201526011602482015270125b9d985b1a59081c9958da5c1a595b9d607a1b60448201526064016102de565b6106b06001600160a01b03841683836108af565b610723610806565b6001600160a01b0382166107695760405162461bcd60e51b815260206004820152600d60248201526c24b73b30b634b2103a37b5b2b760991b60448201526064016102de565b6001600160a01b038216600081815260046020908152604091829020805460ff191685151590811790915591519182527fbbe72b7d9dcb594ee398a4a617885aba53d833e2aad601c813ce9df99fdeb49b910160405180910390a25050565b6107d0610806565b6001600160a01b0381166107fa57604051631e4fbdf760e01b8152600060048201526024016102de565b61080381610833565b50565b6001546001600160a01b0316331461033e5760405163118cdaa760e01b81523360048201526024016102de565b600180546001600160a01b038381166001600160a01b0319831681179093556040519116919082907f8be0079c531659141344cd1fd0a4f28419497f9722a3daafe3b4186f6b6457e090600090a35050565b6002600054036108a857604051633ee5aeb560e01b815260040160405180910390fd5b6002600055565b604080516001600160a01b03841660248201526044808201849052825180830390910181526064909101909152602080820180516001600160e01b031663a9059cbb60e01b17815282516106b0938793909260009283929183919082885af18061091f576040513d6000823e3d81fd5b50506000513d91508115610937578060011415610944565b6001600160a01b0384163b155b1561096d57604051635274afe760e01b81526001600160a01b03851660048201526024016102de565b50505050565b60006020828403121561098557600080fd5b5035919050565b80356001600160a01b03811681146109a357600080fd5b919050565b6000602082840312156109ba57600080fd5b6109c38261098c565b9392505050565b6000806000606084860312156109df57600080fd5b6109e88461098c565b92506109f66020850161098c565b9150604084013590509250925092565b60008060408385031215610a1957600080fd5b610a228361098c565b915060208301358015158114610a3757600080fd5b809150509250929050565b600060208284031215610a5457600080fd5b5051919050565b634e487b7160e01b600052601160045260246000fd5b8082028115828204841417610a8857610a88610a5b565b92915050565b600082610aab57634e487b7160e01b600052601260045260246000fd5b500490565b81810381811115610a8857610a88610a5b565b80820180821115610a8857610a88610a5b56fea264697066735822122070d5dc03a1f1de502525227953cb5edca7feca9921c36759bb6813c7c44fe6c664736f6c63430008140033",
  "linkReferences": {},
  "deployedLinkReferences": {}
}